:020000040000FA
:10000000020026020000FFFFFFFFFF020000FFFFCB
:10001000FFFFFF020245FFFFFFFFFF020000FFFF9F
:10002000FFFFFF02000075A8807589127588507562
:100030008CA6759880758780752130752004753180
:1000400000752A01752800752F597530001200645B
:1000500075A08374DFF275A0807581071202C31248
:10006000012C01591200B375A0837489F275A08028
:10007000780179507A727B961200DF7800795F7A86
:10008000727B981200DF0B78E579201200DF7A741A
:100090007B389005707D027E48E493F9A3E493F8E1
:1000A000A31200DFEB240150010AFBDEECDDEA12B3
:1000B00000C92275A083749BF23097FD7590DF20F4
:1000C00096FD75905F75907F2275A083749BF27585
:1000D000907E75907C75907E75907F7590FF22C0A4
:1000E00002C003C000C001A802A9037AFD7BA012D0
:1000F0000102D001D0007AFD7BA2120102D003D010
:100100000222EBF4F205A0EAF4F215A075907775DF
:10011000907675907EE9F4F205A0E8F4F215A075EA
:10012000907A2094FD75907E75907F22D5E005E54C
:100130002A0202D7D5E008E5287528000202D7D5A3
:10014000E003D25622D5E003D25622D5E00122D5D3
:10015000E00985F0201202B7F52122D5E00F7401E5
:100160001202D774031202D774080202D7D5E00F27
:10017000E5321202D7E52B1202D7E52C0202D7D5C1
:10018000E00AE5251202D7E5240202D7D5E0207562
:100190008300F58285F025ADF01202B7F524FEBE8E
:1001A0000005BD0001221D1E1202B7F0A3219FD53C
:1001B000E021758300F582E525FD1202D7E524FED6
:1001C0001202D7BE0005BD0001221D1EE0A31202CF
:1001D000D721C3D5E00C852527852426758300F516
:1001E0008222D5E00BF524F525752708F52621DCBC
:1001F000D5E00CFD7E0112029CEE1202D721C3D580
:10020000E00DFD7E0112029CEE1202D702021DD506
:10021000E00512028B21C3D5E00F12028BEE2524DC
:10022000F524ED3525F525219FD5E00485F0312213
:10023000D5E00685F0290202DFD5E0067529000227
:1002400002DFD2432220B404E2D24032E205A0E22F
:1002500015A0D5E00AE52A20B202F232D24132D509
:10026000E00AE52875280020B2F2F232D5E0043029
:10027000550432D5E00ED250D251D256D264C2AA21
:1002800075813032D5E00132D24332ADF01202B77F
:10029000FE12029CED1202D7EE0202D7C3E5269EA3
:1002A000F5F0E5279D400685F026F52722AD27AE1F
:1002B00026E4F526F5272220B3FD20B402E222D25F
:1002C00042015920B3FD30B409E2F5F005A0E21572
:1002D000A022E2D24041C330B3E520B2FAF2228537
:1002E0002132752E80752C00752B00752A00758AB9
:1002F000A6C28D208D051098F541F3304B09900072
:100300000085832385822212048E40EFE535204B41
:100310000B306EDA306DD7D257D25022204830D20F
:1003200054204923B40007D249C254020360640830
:10033000602BD260308FB7758B00758D00C28FD562
:1003400032ACD251D2502264106015D26161343087
:1003500049086400600AD2626134306E910203B2CF
:10036000D255D252858134E4FCFDFEF52B75381848
:100370008C2E8C3985832385822212043E12048EB2
:10038000402BE535B42812E53660E52DFDE53760F4
:10039000DF1D2EFE50DA0D6170B430030203A4B4E9
:1003A0002009D2538D258E24D25022D263120428E4
:1003B000617AD255858134E4F52BF52EF539AD25DA
:1003C000E52460010DF53B858323858222BD000C69
:1003D000753820204A1A7538300203F0753828C362
:1003E000ED95204007FD85203A0203F08D3A7D000F
:1003F00012043E12048E500512042861F0E535B453
:1004000018098C2E8C39753B0061C7B420096538FA
:10041000700FD253D25022B4300765387003D250D7
:1004200022D26312042861F0308F12758B00758D13
:1004300000C28FD53207D251D25085348122D29951
:10044000E4FFFA74FFD29B758AC4C28D120526C2DE
:100450009B308DFDE538B42802AA3A45394A120589
:1004600026EA6006E53BFB120526EFF4041205269A
:10047000EA6015852383852282E0A3120526DBF935
:10048000DAF7EFF4041205263099FDC2992285812E
:1004900033D29C109804D2AA8193C2AA209A05D282
:1004A00058020549E599FFB40371120530F52DFC9A
:1004B000206E0DF5355335785407F536FA0204D31E
:1004C000540FD395314005D25F020549E4F536FA61
:1004D000753540600E204905D25C02054912053091
:1004E000F537FB120530BF002DEC5480FC652E70F3
:1004F00005D25D020549BA000302052085238385E4
:100500002282120530F0A3DBF9DAF7120530EF6032
:100510000FD25B020549D25B020549D25E02054952
:10052000C3C29CC298223099FDC299F5992FFF222F
:10053000758AA6C28D109808308DFAD259020549E5
:10054000E599F5F02FFFE5F022D2AA208D0A309828
:10055000FAC298758AA6A14B853381D3C29CC298F2
:10056000C2AA2200FFFFFFFFFFFFFFFFFFFFFFFF09
:10057000C6150002F709E8010C1BA7300000C015E2
:100580006400DF95FB0081FD1F1082FD067EC01513
:100590000200F7096801F7093201C0150A00030AD1
:1005A000F7095A01C01510000310F7096401C411BE
:1005B000C465CD010095F7095801C47EC315090033
:1005C000F709DE00C3150B00378AB001F709D20026
:1005D000C0150B00F7092601F7091201C00004102D
:1005E000C4E50200F709E400DF1501000240C02560
:1005F00002003302DF1502000240F709CE002D028F
:10060000F78B78010F02B78A7201C4E50800F70979
:10061000DC0002102610F709D4000110F709CE0003
:10062000F709CA00C40B0603F709A0001290C10A1B
:10063000C40AF801C5B50800C902DF15030002406D
:10064000C10B0B02C0150200F709B200DF15040050
:100650000240F7097600010287159F110040F70953
:10066000FE000C0E6F5B49424B41205A41475255E8
:100670005A4B492053495354454D593B20444C5102
:1006800020504F57544F5241204E41564D495445EA
:1006900020776B00DF8B70FFFD04C01772FF7700BF
:1006A000CEFEC0151300F7095400C3450100C01564
:1006B0000100F7094800F70912000510808CF78641
:1006C000808CDF1505000240C8878700000AD7B775
:1006D00080FD80000502057EDF1507000240BD0198
:1006E000C01782FD400AC04500FFC00B8700F70914
:1006F000DAFF2610F709D4FFC00080658700661175
:10070000C5152000F7091E00400A1F9081FD8515C0
:10071000C0106611C5154000F7090A00400A1F10F5
:1007200082FD851587002611D7B780FD8000040360
:10073000DF15070002409101040AC5B780FD0602DB
:10074000C40AFB02DF1508000240870184158700F8
:10075000DF8B74FFFD049F9D020076FF8E158700DE
:10076000FE8B00000603A69F0000F709E2FF8E0A39
:10077000F701CE650200CE450100870000020001AE
:10078000014E4554245354302E50534D0001D2FF96
:10079000FFFFFFFFFFFFFFFFFFFFFFFFFFFFFFFF69
:1007A000FFFFFFFFFFFFFFFFFFFFFFFFFFFFFFFF59
:1007B000FFFFFFFFFFFFFFFFFFFFFFFFFFFFFFFF49
:1007C000FFFFFFFFFFFFFFFFFFFFFFFFFFFFFFFF39
:1007D000FFFFFFFFFFFFFFFFFFFFFFFFFFFFFFFF29
:1007E000FFFFFFFFFFFFFFFFFFFFFFFFFFFFFFFF19
:1007F000FFFFFFFFFFFFFFFFFFFFFFFFFFFFFFFF09
:00000001FF
