:020000040000FA
:10000000020026020000FFFFFFFFFF020000FFFFCB
:10001000FFFFFF02021DFFFFFFFFFF020000FFFFC7
:10002000FFFFFF02000075A8807589127588507562
:100030008CA6759880758780752130752004753180
:1000400000752A01752800752F5F753000D295C2A2
:1000500096D29712006A75A08374DFF275A080753E
:10006000810712029B1200EE015F1200927BA07CBE
:10007000009005407D027E60E493FAA3E493F9A327
:100080001200AEEC240250010BFCDEECDDEA1200A3
:10009000A022C2B574021200D475A0837489F22222
:1000A00075A083749BF2D2B5740A1200D422EC7549
:1000B000A080F4F2EB75A081F4F2C293C290D293C7
:1000C000EA75A080F4F2E975A081F4F2C29200D240
:1000D00092D29022C0E074C81200E1D0E0D5E0F4E2
:1000E00022C0E074F4D5E0FDD0E0D5E0F422D5E004
:1000F00005E52A0202AFD5E008E5287528000202CE
:10010000AFD5E003D25622D5E003D25622D5E00186
:1001100022D5E00985F02012028FF52122D5E00FCB
:1001200074011202AF74091202AF74080202AFD553
:10013000E00FE5321202AFE52B1202AFE52C02020E
:10014000AFD5E00AE5251202AFE5240202AFD5E003
:1001500020758300F58285F025ADF012028FF5241D
:10016000FEBE0005BD0001221D1E12028FF0A3215C
:1001700061D5E021758300F582E525FD1202AFE52A
:1001800024FE1202AFBE0005BD0001221D1EE0A329
:100190001202AF2185D5E00C85252785242675839D
:1001A00000F58222D5E00BF524F525752708F52604
:1001B000219ED5E00CFD7E01120274EE1202AF21E9
:1001C00085D5E00DFD7E01120274EE1202AF020130
:1001D000DFD5E0051202632185D5E00F120263EE40
:1001E0002524F524ED3525F5252161D5E00485F09C
:1001F0003122D5E00685F0290202B7D5E00675293F
:10020000000202B7D5E01312028F7003C29522D20A
:1002100095D5E003D29722C29722D2432220B4047C
:10022000E2D24032E205A0E215A0D5E00AE52A209C
:10023000B202F232D24132D5E00AE5287528002018
:10024000B2F2F232D5E00430550432D5E00ED2508D
:10025000D251D256D264C2AA75813032D5E0013271
:10026000D24332ADF012028FFE120274ED1202AFD1
:10027000EE0202AFC3E5269EF5F0E5279D40068518
:10028000F026F52722AD27AE26E4F526F527222015
:10029000B3FD20B402E222D242015F20B3FD30B4AC
:1002A00009E2F5F005A0E215A022E2D240419B3020
:1002B000B3E520B2FAF222852132752E80752C002A
:1002C000752B00752A00758AA6C28D208D051098A1
:1002D000F541CB304B0990000085832385822212A3
:1002E000046640EFE535204B0B306EDA306DD7D227
:1002F00057D25022204830D254204923B40007D28C
:1003000049C2540203386408602BD260308FB7753D
:100310008B00758D00C28FD532ACD251D250226481
:10032000106015D261610C3049086400600AD26225
:10033000610C306E9102038AD255D252858134E429
:10034000FCFDFEF52B7538188C2E8C3985832385A2
:100350008222120416120466402BE535B42812E5F9
:100360003660E52DFDE53760DF1D2EFE50DA0D61AC
:1003700048B4300302037CB42009D2538D258E2467
:10038000D25022D2631204006152D255858134E4E6
:10039000F52BF52EF539AD25E52460010DF53B85EE
:1003A0008323858222BD000C753820204A1A7538B7
:1003B000300203C8753828C3ED95204007FD85201D
:1003C0003A0203C88D3A7D001204161204665005E5
:1003D00012040061C8E535B418098C2E8C39753BC0
:1003E00000619FB420096538700FD253D25022B4F7
:1003F000300765387003D25022D26312040061C8FE
:10040000308F12758B00758D00C28FD53207D25197
:10041000D25085348122D299E4FFFA74FFD29B75C1
:100420008AC4C28D1204FEC29B308DFDE538B4280B
:1004300002AA3A45394A1204FEEA6006E53BFB127D
:1004400004FEEFF4041204FEEA601585238385227E
:1004500082E0A31204FEDBF9DAF7EFF4041204FEE3
:100460003099FDC29922858133D29C109804D2AA7A
:10047000816BC2AA209A05D258020521E599FFB4E2
:100480000971120508F52DFC206E0DF535533578F0
:100490005407F536FA0204AB540FD395314005D218
:1004A0005F020521E4F536FA753540600E204905F6
:1004B000D25C020521120508F537FB120508BF00C2
:1004C0002DEC5480FC652E7005D25D020521BA002A
:1004D000030204F8852383852282120508F0A3DB3A
:1004E000F9DAF7120508EF600FD25B020521D25B43
:1004F000020521D25E020521C3C29CC29822309916
:10050000FDC299F5992FFF22758AA6C28D10980811
:10051000308DFAD259020521E599F5F02FFFE5F06B
:1005200022D2AA208D0A3098FAC298758AA6A123F1
:10053000853381D3C29CC298C2AA2200FFFFFFFF6D
:10054000020100000000C6150002C0150C000E8854
:10055000C0156400DF95FB0089FF1F108AFF067E2F
:10056000C0150200F7094601F7091001C0150A007D
:10057000030AF7093801C0150E000310F7094201FC
:10058000C411C465C7010095F7093601C47EC315BF
:100590000900F709BC00C3150B00378AAA01F70947
:1005A000B000C0150B00F7090401F709F000C00006
:1005B0000410C4E50200F709C200DF15010004A021
:1005C000C02502003302DF15020004A0F709AC00C9
:1005D0002D02F78B72010F02B78A6C01C4E5080087
:1005E000F709BA0002102610F709B2000110F70946
:1005F000AC00F709A800C40B0603F7097E001290AF
:10060000C10AC40AF801C5B50800C902DF15030014
:1006100004A0C10B0B02C0150200F7099000DF1502
:10062000040004A0F7095400010287159F1102A0DD
:10063000C111C165CE00020A1088C21704A0F709D3
:10064000E600C111C165D400020A1088068877004F
:10065000EEFEC0151300F7095400C3450100C01594
:100660000100F7094800F70912000510808CF78691
:10067000808CDF15050004A0D9878700000AD7B752
:1006800088FF80000502057EDF15070004A0CE016B
:10069000C0178AFF400AC04500FFC00B8700F7095A
:1006A000DAFF2610F709D4FFC000806587006611C5
:1006B000C5154000F7091E00400A1F9089FF8515E7
:1006C000C0106611C5154000F7090A00400A1F1046
:1006D0008AFF851587002611D7B788FF800004039D
:1006E000DF15070004A0A201040AC5B788FF0602AF
:1006F000C40AFB02DF15080004A0980184158700D6
:100700000C53797374656D206C6F6164696E67203A
:100710006572726F72203D000A50726573732061BA
:100720006E79206B65790000000AC115060005018D
:10073000000A420C400C420C400C420C400CC065BC
:1007400030000E884B7E87000002000101535441A7
:1007500052542E42534D0001E4FFFFFFFFFFFFFF05
:10076000FFFFFFFFFFFFFFFFFFFFFFFFFFFFFFFF99
:10077000FFFFFFFFFFFFFFFFFFFFFFFFFFFFFFFF89
:10078000FFFFFFFFFFFFFFFFFFFFFFFFFFFFFFFF79
:10079000FFFFFFFFFFFFFFFFFFFFFFFFFFFFFFFF69
:1007A000FFFFFFFFFFFFFFFFFFFFFFFFFFFFFFFF59
:1007B000FFFFFFFFFFFFFFFFFFFFFFFFFFFFFFFF49
:1007C000FFFFFFFFFFFFFFFFFFFFFFFFFFFFFFFF39
:1007D000FFFFFFFFFFFFFFFFFFFFFFFFFFFFFFFF29
:1007E000FFFFFFFFFFFFFFFFFFFFFFFFFFFFFFFF19
:1007F000FFFFFFFFFFFFFFFFFFFFFFFFFFFFFFFF09
:00000001FF
